{
  "_format": "hh-sol-artifact-1",
  "contractName": "ERC721Merkle",
  "sourceName": "contracts/ERC721Merkle.sol",
  "abi": [
    {
      "inputs": [
        {
          "internalType": "string",
          "name": "name",
          "type": "string"
        },
        {
          "internalType": "string",
          "name": "symbol",
          "type": "string"
        },
        {
          "internalType": "bytes32",
          "name": "merkleroot",
          "type": "bytes32"
        }
      ],
      "stateMutability": "nonpayable",
      "type": "constructor"
    },
    {
      "anonymous": false,
      "inputs": [
        {
          "indexed": true,
          "internalType": "address",
          "name": "owner",
          "type": "address"
        },
        {
          "indexed": true,
          "internalType": "address",
          "name": "approved",
          "type": "address"
        },
        {
          "indexed": true,
          "internalType": "uint256",
          "name": "tokenId",
          "type": "uint256"
        }
      ],
      "name": "Approval",
      "type": "event"
    },
    {
      "anonymous": false,
      "inputs": [
        {
          "indexed": true,
          "internalType": "address",
          "name": "owner",
          "type": "address"
        },
        {
          "indexed": true,
          "internalType": "address",
          "name": "operator",
          "type": "address"
        },
        {
          "indexed": false,
          "internalType": "bool",
          "name": "approved",
          "type": "bool"
        }
      ],
      "name": "ApprovalForAll",
      "type": "event"
    },
    {
      "anonymous": false,
      "inputs": [
        {
          "indexed": true,
          "internalType": "address",
          "name": "from",
          "type": "address"
        },
        {
          "indexed": true,
          "internalType": "address",
          "name": "to",
          "type": "address"
        },
        {
          "indexed": true,
          "internalType": "uint256",
          "name": "tokenId",
          "type": "uint256"
        }
      ],
      "name": "Transfer",
      "type": "event"
    },
    {
      "inputs": [
        {
          "internalType": "address",
          "name": "to",
          "type": "address"
        },
        {
          "internalType": "uint256",
          "name": "tokenId",
          "type": "uint256"
        }
      ],
      "name": "approve",
      "outputs": [],
      "stateMutability": "nonpayable",
      "type": "function"
    },
    {
      "inputs": [
        {
          "internalType": "address",
          "name": "owner",
          "type": "address"
        }
      ],
      "name": "balanceOf",
      "outputs": [
        {
          "internalType": "uint256",
          "name": "",
          "type": "uint256"
        }
      ],
      "stateMutability": "view",
      "type": "function"
    },
    {
      "inputs": [
        {
          "internalType": "uint256",
          "name": "tokenId",
          "type": "uint256"
        }
      ],
      "name": "getApproved",
      "outputs": [
        {
          "internalType": "address",
          "name": "",
          "type": "address"
        }
      ],
      "stateMutability": "view",
      "type": "function"
    },
    {
      "inputs": [
        {
          "internalType": "address",
          "name": "owner",
          "type": "address"
        },
        {
          "internalType": "address",
          "name": "operator",
          "type": "address"
        }
      ],
      "name": "isApprovedForAll",
      "outputs": [
        {
          "internalType": "bool",
          "name": "",
          "type": "bool"
        }
      ],
      "stateMutability": "view",
      "type": "function"
    },
    {
      "inputs": [
        {
          "internalType": "bytes32[]",
          "name": "proof",
          "type": "bytes32[]"
        },
        {
          "internalType": "bytes32",
          "name": "leaf",
          "type": "bytes32"
        }
      ],
      "name": "isValid",
      "outputs": [
        {
          "internalType": "bool",
          "name": "",
          "type": "bool"
        }
      ],
      "stateMutability": "view",
      "type": "function"
    },
    {
      "inputs": [],
      "name": "name",
      "outputs": [
        {
          "internalType": "string",
          "name": "",
          "type": "string"
        }
      ],
      "stateMutability": "view",
      "type": "function"
    },
    {
      "inputs": [
        {
          "internalType": "uint256",
          "name": "tokenId",
          "type": "uint256"
        }
      ],
      "name": "ownerOf",
      "outputs": [
        {
          "internalType": "address",
          "name": "",
          "type": "address"
        }
      ],
      "stateMutability": "view",
      "type": "function"
    },
    {
      "inputs": [],
      "name": "root",
      "outputs": [
        {
          "internalType": "bytes32",
          "name": "",
          "type": "bytes32"
        }
      ],
      "stateMutability": "view",
      "type": "function"
    },
    {
      "inputs": [
        {
          "internalType": "address",
          "name": "to",
          "type": "address"
        },
        {
          "internalType": "uint256",
          "name": "tokenId",
          "type": "uint256"
        },
        {
          "internalType": "bytes32[]",
          "name": "proof",
          "type": "bytes32[]"
        }
      ],
      "name": "safeMint",
      "outputs": [],
      "stateMutability": "nonpayable",
      "type": "function"
    },
    {
      "inputs": [
        {
          "internalType": "address",
          "name": "from",
          "type": "address"
        },
        {
          "internalType": "address",
          "name": "to",
          "type": "address"
        },
        {
          "internalType": "uint256",
          "name": "tokenId",
          "type": "uint256"
        }
      ],
      "name": "safeTransferFrom",
      "outputs": [],
      "stateMutability": "nonpayable",
      "type": "function"
    },
    {
      "inputs": [
        {
          "internalType": "address",
          "name": "from",
          "type": "address"
        },
        {
          "internalType": "address",
          "name": "to",
          "type": "address"
        },
        {
          "internalType": "uint256",
          "name": "tokenId",
          "type": "uint256"
        },
        {
          "internalType": "bytes",
          "name": "data",
          "type": "bytes"
        }
      ],
      "name": "safeTransferFrom",
      "outputs": [],
      "stateMutability": "nonpayable",
      "type": "function"
    },
    {
      "inputs": [
        {
          "internalType": "address",
          "name": "operator",
          "type": "address"
        },
        {
          "internalType": "bool",
          "name": "approved",
          "type": "bool"
        }
      ],
      "name": "setApprovalForAll",
      "outputs": [],
      "stateMutability": "nonpayable",
      "type": "function"
    },
    {
      "inputs": [
        {
          "internalType": "bytes4",
          "name": "interfaceId",
          "type": "bytes4"
        }
      ],
      "name": "supportsInterface",
      "outputs": [
        {
          "internalType": "bool",
          "name": "",
          "type": "bool"
        }
      ],
      "stateMutability": "view",
      "type": "function"
    },
    {
      "inputs": [],
      "name": "symbol",
      "outputs": [
        {
          "internalType": "string",
          "name": "",
          "type": "string"
        }
      ],
      "stateMutability": "view",
      "type": "function"
    },
    {
      "inputs": [
        {
          "internalType": "uint256",
          "name": "tokenId",
          "type": "uint256"
        }
      ],
      "name": "tokenURI",
      "outputs": [
        {
          "internalType": "string",
          "name": "",
          "type": "string"
        }
      ],
      "stateMutability": "view",
      "type": "function"
    },
    {
      "inputs": [
        {
          "internalType": "address",
          "name": "from",
          "type": "address"
        },
        {
          "internalType": "address",
          "name": "to",
          "type": "address"
        },
        {
          "internalType": "uint256",
          "name": "tokenId",
          "type": "uint256"
        }
      ],
      "name": "transferFrom",
      "outputs": [],
      "stateMutability": "nonpayable",
      "type": "function"
    }
  ],
  "bytecode": "0x60a06040523480156200001157600080fd5b50604051620031cc380380620031cc83398181016040528101906200003791906200023e565b828281600090816200004a919062000523565b5080600190816200005c919062000523565b50505080608081815250505050506200060a565b6000604051905090565b600080fd5b600080fd5b600080fd5b600080fd5b6000601f19601f8301169050919050565b7f4e487b7100000000000000000000000000000000000000000000000000000000600052604160045260246000fd5b620000d9826200008e565b810181811067ffffffffffffffff82111715620000fb57620000fa6200009f565b5b80604052505050565b60006200011062000070565b90506200011e8282620000ce565b919050565b600067ffffffffffffffff8211156200014157620001406200009f565b5b6200014c826200008e565b9050602081019050919050565b60005b83811015620001795780820151818401526020810190506200015c565b60008484015250505050565b60006200019c620001968462000123565b62000104565b905082815260208101848484011115620001bb57620001ba62000089565b5b620001c884828562000159565b509392505050565b600082601f830112620001e857620001e762000084565b5b8151620001fa84826020860162000185565b91505092915050565b6000819050919050565b620002188162000203565b81146200022457600080fd5b50565b60008151905062000238816200020d565b92915050565b6000806000606084860312156200025a57620002596200007a565b5b600084015167ffffffffffffffff8111156200027b576200027a6200007f565b5b6200028986828701620001d0565b935050602084015167ffffffffffffffff811115620002ad57620002ac6200007f565b5b620002bb86828701620001d0565b9250506040620002ce8682870162000227565b9150509250925092565b600081519050919050565b7f4e487b7100000000000000000000000000000000000000000000000000000000600052602260045260246000fd5b600060028204905060018216806200032b57607f821691505b602082108103620003415762000340620002e3565b5b50919050565b60008190508160005260206000209050919050565b60006020601f8301049050919050565b600082821b905092915050565b600060088302620003ab7fffffffffffffffffffffffffffffffffffffffffffffffffffffffffffffffff826200036c565b620003b786836200036c565b95508019841693508086168417925050509392505050565b6000819050919050565b6000819050919050565b600062000404620003fe620003f884620003cf565b620003d9565b620003cf565b9050919050565b6000819050919050565b6200042083620003e3565b620004386200042f826200040b565b84845462000379565b825550505050565b600090565b6200044f62000440565b6200045c81848462000415565b505050565b5b8181101562000484576200047860008262000445565b60018101905062000462565b5050565b601f821115620004d3576200049d8162000347565b620004a8846200035c565b81016020851015620004b8578190505b620004d0620004c7856200035c565b83018262000461565b50505b505050565b600082821c905092915050565b6000620004f860001984600802620004d8565b1980831691505092915050565b6000620005138383620004e5565b9150826002028217905092915050565b6200052e82620002d8565b67ffffffffffffffff8111156200054a57620005496200009f565b5b62000556825462000312565b6200056382828562000488565b600060209050601f8311600181146200059b576000841562000586578287015190505b62000592858262000505565b86555062000602565b601f198416620005ab8662000347565b60005b82811015620005d557848901518255600182019150602085019450602081019050620005ae565b86831015620005f55784890151620005f1601f891682620004e5565b8355505b6001600288020188555050505b505050505050565b608051612b9f6200062d600039600081816109750152610aa00152612b9f6000f3fe608060405234801561001057600080fd5b50600436106101005760003560e01c806370a0823111610097578063b8a20ed011610066578063b8a20ed0146102a9578063c87b56dd146102d9578063e985e9c514610309578063ebf0c7171461033957610100565b806370a082311461022357806395d89b4114610253578063a22cb46514610271578063b88d4fde1461028d57610100565b806323b872dd116100d357806323b872dd1461019f5780632dfd972a146101bb57806342842e0e146101d75780636352211e146101f357610100565b806301ffc9a71461010557806306fdde0314610135578063081812fc14610153578063095ea7b314610183575b600080fd5b61011f600480360381019061011a9190611acb565b610357565b60405161012c9190611b13565b60405180910390f35b61013d610439565b60405161014a9190611bbe565b60405180910390f35b61016d60048036038101906101689190611c16565b6104cb565b60405161017a9190611c84565b60405180910390f35b61019d60048036038101906101989190611ccb565b610511565b005b6101b960048036038101906101b49190611d0b565b610628565b005b6101d560048036038101906101d09190611edc565b610688565b005b6101f160048036038101906101ec9190611d0b565b610706565b005b61020d60048036038101906102089190611c16565b610726565b60405161021a9190611c84565b60405180910390f35b61023d60048036038101906102389190611f4b565b6107ac565b60405161024a9190611f87565b60405180910390f35b61025b610863565b6040516102689190611bbe565b60405180910390f35b61028b60048036038101906102869190611fce565b6108f5565b005b6102a760048036038101906102a291906120c3565b61090b565b005b6102c360048036038101906102be9190612146565b61096d565b6040516102d09190611b13565b60405180910390f35b6102f360048036038101906102ee9190611c16565b6109a2565b6040516103009190611bbe565b60405180910390f35b610323600480360381019061031e91906121a2565b610a0a565b6040516103309190611b13565b60405180910390f35b610341610a9e565b60405161034e91906121f1565b60405180910390f35b60007f80ac58cd000000000000000000000000000000000000000000000000000000007bffffffffffffffffffffffffffffffffffffffffffffffffffffffff1916827bffffffffffffffffffffffffffffffffffffffffffffffffffffffff1916148061042257507f5b5e139f000000000000000000000000000000000000000000000000000000007bffffffffffffffffffffffffffffffffffffffffffffffffffffffff1916827bffffffffffffffffffffffffffffffffffffffffffffffffffffffff1916145b80610432575061043182610ac2565b5b9050919050565b6060600080546104489061223b565b80601f01602080910402602001604051908101604052809291908181526020018280546104749061223b565b80156104c15780601f10610496576101008083540402835291602001916104c1565b820191906000526020600020905b8154815290600101906020018083116104a457829003601f168201915b5050505050905090565b60006104d682610b2c565b6004600083815260200190815260200160002060009054906101000a900473ffffffffffffffffffffffffffffffffffffffff169050919050565b600061051c82610726565b90508073ffffffffffffffffffffffffffffffffffffffff168373ffffffffffffffffffffffffffffffffffffffff160361058c576040517f08c379a0000000000000000000000000000000000000000000000000000000008152600401610583906122de565b60405180910390fd5b8073ffffffffffffffffffffffffffffffffffffffff166105ab610b77565b73ffffffffffffffffffffffffffffffffffffffff1614806105da57506105d9816105d4610b77565b610a0a565b5b610619576040517f08c379a000000000000000000000000000000000000000000000000000000000815260040161061090612370565b60405180910390fd5b6106238383610b7f565b505050565b610639610633610b77565b82610c38565b610678576040517f08c379a000000000000000000000000000000000000000000000000000000000815260040161066f90612402565b60405180910390fd5b610683838383610ccd565b505050565b6106b8813360405160200161069d919061246a565b6040516020818303038152906040528051906020012061096d565b6106f7576040517f08c379a00000000000000000000000000000000000000000000000000000000081526004016106ee906124d1565b60405180910390fd5b6107018383610fc6565b505050565b6107218383836040518060200160405280600081525061090b565b505050565b60008061073283610fe4565b9050600073ffffffffffffffffffffffffffffffffffffffff168173ffffffffffffffffffffffffffffffffffffffff16036107a3576040517f08c379a000000000000000000000000000000000000000000000000000000000815260040161079a9061253d565b60405180910390fd5b80915050919050565b60008073ffffffffffffffffffffffffffffffffffffffff168273ffffffffffffffffffffffffffffffffffffffff160361081c576040517f08c379a0000000000000000000000000000000000000000000000000000000008152600401610813906125cf565b60405180910390fd5b600360008373ffffffffffffffffffffffffffffffffffffffff1673ffffffffffffffffffffffffffffffffffffffff168152602001908152602001600020549050919050565b6060600180546108729061223b565b80601f016020809104026020016040519081016040528092919081815260200182805461089e9061223b565b80156108eb5780601f106108c0576101008083540402835291602001916108eb565b820191906000526020600020905b8154815290600101906020018083116108ce57829003601f168201915b5050505050905090565b610907610900610b77565b8383611021565b5050565b61091c610916610b77565b83610c38565b61095b576040517f08c379a000000000000000000000000000000000000000000000000000000000815260040161095290612402565b60405180910390fd5b6109678484848461118d565b50505050565b600061099a837f0000000000000000000000000000000000000000000000000000000000000000846111e9565b905092915050565b60606109ad82610b2c565b60006109b7611200565b905060008151116109d75760405180602001604052806000815250610a02565b806109e184611217565b6040516020016109f292919061262b565b6040516020818303038152906040525b915050919050565b6000600560008473ffffffffffffffffffffffffffffffffffffffff1673ffffffffffffffffffffffffffffffffffffffff16815260200190815260200160002060008373ffffffffffffffffffffffffffffffffffffffff1673ffffffffffffffffffffffffffffffffffffffff16815260200190815260200160002060009054906101000a900460ff16905092915050565b7f000000000000000000000000000000000000000000000000000000000000000081565b60007f01ffc9a7000000000000000000000000000000000000000000000000000000007bffffffffffffffffffffffffffffffffffffffffffffffffffffffff1916827bffffffffffffffffffffffffffffffffffffffffffffffffffffffff1916149050919050565b610b35816112e5565b610b74576040517f08c379a0000000000000000000000000000000000000000000000000000000008152600401610b6b9061253d565b60405180910390fd5b50565b600033905090565b816004600083815260200190815260200160002060006101000a81548173ffffffffffffffffffffffffffffffffffffffff021916908373ffffffffffffffffffffffffffffffffffffffff160217905550808273ffffffffffffffffffffffffffffffffffffffff16610bf283610726565b73ffffffffffffffffffffffffffffffffffffffff167f8c5be1e5ebec7d5bd14f71427d1e84f3dd0314c0f7b2291e5b200ac8c7c3b92560405160405180910390a45050565b600080610c4483610726565b90508073ffffffffffffffffffffffffffffffffffffffff168473ffffffffffffffffffffffffffffffffffffffff161480610c865750610c858185610a0a565b5b80610cc457508373ffffffffffffffffffffffffffffffffffffffff16610cac846104cb565b73ffffffffffffffffffffffffffffffffffffffff16145b91505092915050565b8273ffffffffffffffffffffffffffffffffffffffff16610ced82610726565b73ffffffffffffffffffffffffffffffffffffffff1614610d43576040517f08c379a0000000000000000000000000000000000000000000000000000000008152600401610d3a906126c1565b60405180910390fd5b600073ffffffffffffffffffffffffffffffffffffffff168273ffffffffffffffffffffffffffffffffffffffff1603610db2576040517f08c379a0000000000000000000000000000000000000000000000000000000008152600401610da990612753565b60405180910390fd5b610dbf8383836001611326565b8273ffffffffffffffffffffffffffffffffffffffff16610ddf82610726565b73ffffffffffffffffffffffffffffffffffffffff1614610e35576040517f08c379a0000000000000000000000000000000000000000000000000000000008152600401610e2c906126c1565b60405180910390fd5b6004600082815260200190815260200160002060006101000a81549073ffffffffffffffffffffffffffffffffffffffff02191690556001600360008573ffffffffffffffffffffffffffffffffffffffff1673ffffffffffffffffffffffffffffffffffffffff168152602001908152602001600020600082825403925050819055506001600360008473ffffffffffffffffffffffffffffffffffffffff1673ffffffffffffffffffffffffffffffffffffffff16815260200190815260200160002060008282540192505081905550816002600083815260200190815260200160002060006101000a81548173ffffffffffffffffffffffffffffffffffffffff021916908373ffffffffffffffffffffffffffffffffffffffff160217905550808273ffffffffffffffffffffffffffffffffffffffff168473ffffffffffffffffffffffffffffffffffffffff167fddf252ad1be2c89b69c2b068fc378daa952ba7f163c4a11628f55a4df523b3ef60405160405180910390a4610fc1838383600161144c565b505050565b610fe0828260405180602001604052806000815250611452565b5050565b60006002600083815260200190815260200160002060009054906101000a900473ffffffffffffffffffffffffffffffffffffffff169050919050565b8173ffffffffffffffffffffffffffffffffffffffff168373ffffffffffffffffffffffffffffffffffffffff160361108f576040517f08c379a0000000000000000000000000000000000000000000000000000000008152600401611086906127bf565b60405180910390fd5b80600560008573ffffffffffffffffffffffffffffffffffffffff1673ffffffffffffffffffffffffffffffffffffffff16815260200190815260200160002060008473ffffffffffffffffffffffffffffffffffffffff1673ffffffffffffffffffffffffffffffffffffffff16815260200190815260200160002060006101000a81548160ff0219169083151502179055508173ffffffffffffffffffffffffffffffffffffffff168373ffffffffffffffffffffffffffffffffffffffff167f17307eab39ab6107e8899845ad3d59bd9653f200f220920489ca2b5937696c31836040516111809190611b13565b60405180910390a3505050565b611198848484610ccd565b6111a4848484846114ad565b6111e3576040517f08c379a00000000000000000000000000000000000000000000000000000000081526004016111da90612851565b60405180910390fd5b50505050565b6000826111f68584611634565b1490509392505050565b606060405180602001604052806000815250905090565b6060600060016112268461168a565b01905060008167ffffffffffffffff81111561124557611244611d63565b5b6040519080825280601f01601f1916602001820160405280156112775781602001600182028036833780820191505090505b509050600082602001820190505b6001156112da578080600190039150507f3031323334353637383961626364656600000000000000000000000000000000600a86061a8153600a85816112ce576112cd612871565b5b04945060008503611285575b819350505050919050565b60008073ffffffffffffffffffffffffffffffffffffffff1661130783610fe4565b73ffffffffffffffffffffffffffffffffffffffff1614159050919050565b600181111561144657600073ffffffffffffffffffffffffffffffffffffffff168473ffffffffffffffffffffffffffffffffffffffff16146113ba5780600360008673ffffffffffffffffffffffffffffffffffffffff1673ffffffffffffffffffffffffffffffffffffffff16815260200190815260200160002060008282546113b291906128cf565b925050819055505b600073ffffffffffffffffffffffffffffffffffffffff168373ffffffffffffffffffffffffffffffffffffffff16146114455780600360008573ffffffffffffffffffffffffffffffffffffffff1673ffffffffffffffffffffffffffffffffffffffff168152602001908152602001600020600082825461143d9190612903565b925050819055505b5b50505050565b50505050565b61145c83836117dd565b61146960008484846114ad565b6114a8576040517f08c379a000000000000000000000000000000000000000000000000000000000815260040161149f90612851565b60405180910390fd5b505050565b60006114ce8473ffffffffffffffffffffffffffffffffffffffff166119fa565b15611627578373ffffffffffffffffffffffffffffffffffffffff1663150b7a026114f7610b77565b8786866040518563ffffffff1660e01b8152600401611519949392919061298c565b6020604051808303816000875af192505050801561155557506040513d601f19601f8201168201806040525081019061155291906129ed565b60015b6115d7573d8060008114611585576040519150601f19603f3d011682016040523d82523d6000602084013e61158a565b606091505b5060008151036115cf576040517f08c379a00000000000000000000000000000000000000000000000000000000081526004016115c690612851565b60405180910390fd5b805181602001fd5b63150b7a0260e01b7bffffffffffffffffffffffffffffffffffffffffffffffffffffffff1916817bffffffffffffffffffffffffffffffffffffffffffffffffffffffff19161491505061162c565b600190505b949350505050565b60008082905060005b845181101561167f5761166a8286838151811061165d5761165c612a1a565b5b6020026020010151611a1d565b9150808061167790612a49565b91505061163d565b508091505092915050565b600080600090507a184f03e93ff9f4daa797ed6e38ed64bf6a1f01000000000000000083106116e8577a184f03e93ff9f4daa797ed6e38ed64bf6a1f01000000000000000083816116de576116dd612871565b5b0492506040810190505b6d04ee2d6d415b85acef81000000008310611725576d04ee2d6d415b85acef8100000000838161171b5761171a612871565b5b0492506020810190505b662386f26fc10000831061175457662386f26fc10000838161174a57611749612871565b5b0492506010810190505b6305f5e100831061177d576305f5e100838161177357611772612871565b5b0492506008810190505b61271083106117a257612710838161179857611797612871565b5b0492506004810190505b606483106117c557606483816117bb576117ba612871565b5b0492506002810190505b600a83106117d4576001810190505b80915050919050565b600073ffffffffffffffffffffffffffffffffffffffff168273ffffffffffffffffffffffffffffffffffffffff160361184c576040517f08c379a000000000000000000000000000000000000000000000000000000000815260040161184390612add565b60405180910390fd5b611855816112e5565b15611895576040517f08c379a000000000000000000000000000000000000000000000000000000000815260040161188c90612b49565b60405180910390fd5b6118a3600083836001611326565b6118ac816112e5565b156118ec576040517f08c379a00000000000000000000000000000000000000000000000000000000081526004016118e390612b49565b60405180910390fd5b6001600360008473ffffffffffffffffffffffffffffffffffffffff1673ffffffffffffffffffffffffffffffffffffffff16815260200190815260200160002060008282540192505081905550816002600083815260200190815260200160002060006101000a81548173ffffffffffffffffffffffffffffffffffffffff021916908373ffffffffffffffffffffffffffffffffffffffff160217905550808273ffffffffffffffffffffffffffffffffffffffff16600073ffffffffffffffffffffffffffffffffffffffff167fddf252ad1be2c89b69c2b068fc378daa952ba7f163c4a11628f55a4df523b3ef60405160405180910390a46119f660008383600161144c565b5050565b6000808273ffffffffffffffffffffffffffffffffffffffff163b119050919050565b6000818310611a3557611a308284611a48565b611a40565b611a3f8383611a48565b5b905092915050565b600082600052816020526040600020905092915050565b6000604051905090565b600080fd5b600080fd5b60007fffffffff0000000000000000000000000000000000000000000000000000000082169050919050565b611aa881611a73565b8114611ab357600080fd5b50565b600081359050611ac581611a9f565b92915050565b600060208284031215611ae157611ae0611a69565b5b6000611aef84828501611ab6565b91505092915050565b60008115159050919050565b611b0d81611af8565b82525050565b6000602082019050611b286000830184611b04565b92915050565b600081519050919050565b600082825260208201905092915050565b60005b83811015611b68578082015181840152602081019050611b4d565b60008484015250505050565b6000601f19601f8301169050919050565b6000611b9082611b2e565b611b9a8185611b39565b9350611baa818560208601611b4a565b611bb381611b74565b840191505092915050565b60006020820190508181036000830152611bd88184611b85565b905092915050565b6000819050919050565b611bf381611be0565b8114611bfe57600080fd5b50565b600081359050611c1081611bea565b92915050565b600060208284031215611c2c57611c2b611a69565b5b6000611c3a84828501611c01565b91505092915050565b600073ffffffffffffffffffffffffffffffffffffffff82169050919050565b6000611c6e82611c43565b9050919050565b611c7e81611c63565b82525050565b6000602082019050611c996000830184611c75565b92915050565b611ca881611c63565b8114611cb357600080fd5b50565b600081359050611cc581611c9f565b92915050565b60008060408385031215611ce257611ce1611a69565b5b6000611cf085828601611cb6565b9250506020611d0185828601611c01565b9150509250929050565b600080600060608486031215611d2457611d23611a69565b5b6000611d3286828701611cb6565b9350506020611d4386828701611cb6565b9250506040611d5486828701611c01565b9150509250925092565b600080fd5b7f4e487b7100000000000000000000000000000000000000000000000000000000600052604160045260246000fd5b611d9b82611b74565b810181811067ffffffffffffffff82111715611dba57611db9611d63565b5b80604052505050565b6000611dcd611a5f565b9050611dd98282611d92565b919050565b600067ffffffffffffffff821115611df957611df8611d63565b5b602082029050602081019050919050565b600080fd5b6000819050919050565b611e2281611e0f565b8114611e2d57600080fd5b50565b600081359050611e3f81611e19565b92915050565b6000611e58611e5384611dde565b611dc3565b90508083825260208201905060208402830185811115611e7b57611e7a611e0a565b5b835b81811015611ea45780611e908882611e30565b845260208401935050602081019050611e7d565b5050509392505050565b600082601f830112611ec357611ec2611d5e565b5b8135611ed3848260208601611e45565b91505092915050565b600080600060608486031215611ef557611ef4611a69565b5b6000611f0386828701611cb6565b9350506020611f1486828701611c01565b925050604084013567ffffffffffffffff811115611f3557611f34611a6e565b5b611f4186828701611eae565b9150509250925092565b600060208284031215611f6157611f60611a69565b5b6000611f6f84828501611cb6565b91505092915050565b611f8181611be0565b82525050565b6000602082019050611f9c6000830184611f78565b92915050565b611fab81611af8565b8114611fb657600080fd5b50565b600081359050611fc881611fa2565b92915050565b60008060408385031215611fe557611fe4611a69565b5b6000611ff385828601611cb6565b925050602061200485828601611fb9565b9150509250929050565b600080fd5b600067ffffffffffffffff82111561202e5761202d611d63565b5b61203782611b74565b9050602081019050919050565b82818337600083830152505050565b600061206661206184612013565b611dc3565b9050828152602081018484840111156120825761208161200e565b5b61208d848285612044565b509392505050565b600082601f8301126120aa576120a9611d5e565b5b81356120ba848260208601612053565b91505092915050565b600080600080608085870312156120dd576120dc611a69565b5b60006120eb87828801611cb6565b94505060206120fc87828801611cb6565b935050604061210d87828801611c01565b925050606085013567ffffffffffffffff81111561212e5761212d611a6e565b5b61213a87828801612095565b91505092959194509250565b6000806040838503121561215d5761215c611a69565b5b600083013567ffffffffffffffff81111561217b5761217a611a6e565b5b61218785828601611eae565b925050602061219885828601611e30565b9150509250929050565b600080604083850312156121b9576121b8611a69565b5b60006121c785828601611cb6565b92505060206121d885828601611cb6565b9150509250929050565b6121eb81611e0f565b82525050565b600060208201905061220660008301846121e2565b92915050565b7f4e487b7100000000000000000000000000000000000000000000000000000000600052602260045260246000fd5b6000600282049050600182168061225357607f821691505b6020821081036122665761226561220c565b5b50919050565b7f4552433732313a20617070726f76616c20746f2063757272656e74206f776e6560008201527f7200000000000000000000000000000000000000000000000000000000000000602082015250565b60006122c8602183611b39565b91506122d38261226c565b604082019050919050565b600060208201905081810360008301526122f7816122bb565b9050919050565b7f4552433732313a20617070726f76652063616c6c6572206973206e6f7420746f60008201527f6b656e206f776e6572206f7220617070726f76656420666f7220616c6c000000602082015250565b600061235a603d83611b39565b9150612365826122fe565b604082019050919050565b600060208201905081810360008301526123898161234d565b9050919050565b7f4552433732313a2063616c6c6572206973206e6f7420746f6b656e206f776e6560008201527f72206f7220617070726f76656400000000000000000000000000000000000000602082015250565b60006123ec602d83611b39565b91506123f782612390565b604082019050919050565b6000602082019050818103600083015261241b816123df565b9050919050565b60008160601b9050919050565b600061243a82612422565b9050919050565b600061244c8261242f565b9050919050565b61246461245f82611c63565b612441565b82525050565b60006124768284612453565b60148201915081905092915050565b7f6e6f742070617274206f6620616c6c6f776c6973740000000000000000000000600082015250565b60006124bb601583611b39565b91506124c682612485565b602082019050919050565b600060208201905081810360008301526124ea816124ae565b9050919050565b7f4552433732313a20696e76616c696420746f6b656e2049440000000000000000600082015250565b6000612527601883611b39565b9150612532826124f1565b602082019050919050565b600060208201905081810360008301526125568161251a565b9050919050565b7f4552433732313a2061646472657373207a65726f206973206e6f74206120766160008201527f6c6964206f776e65720000000000000000000000000000000000000000000000602082015250565b60006125b9602983611b39565b91506125c48261255d565b604082019050919050565b600060208201905081810360008301526125e8816125ac565b9050919050565b600081905092915050565b600061260582611b2e565b61260f81856125ef565b935061261f818560208601611b4a565b80840191505092915050565b600061263782856125fa565b915061264382846125fa565b91508190509392505050565b7f4552433732313a207472616e736665722066726f6d20696e636f72726563742060008201527f6f776e6572000000000000000000000000000000000000000000000000000000602082015250565b60006126ab602583611b39565b91506126b68261264f565b604082019050919050565b600060208201905081810360008301526126da8161269e565b9050919050565b7f4552433732313a207472616e7366657220746f20746865207a65726f2061646460008201527f7265737300000000000000000000000000000000000000000000000000000000602082015250565b600061273d602483611b39565b9150612748826126e1565b604082019050919050565b6000602082019050818103600083015261276c81612730565b9050919050565b7f4552433732313a20617070726f766520746f2063616c6c657200000000000000600082015250565b60006127a9601983611b39565b91506127b482612773565b602082019050919050565b600060208201905081810360008301526127d88161279c565b9050919050565b7f4552433732313a207472616e7366657220746f206e6f6e20455243373231526560008201527f63656976657220696d706c656d656e7465720000000000000000000000000000602082015250565b600061283b603283611b39565b9150612846826127df565b604082019050919050565b6000602082019050818103600083015261286a8161282e565b9050919050565b7f4e487b7100000000000000000000000000000000000000000000000000000000600052601260045260246000fd5b7f4e487b7100000000000000000000000000000000000000000000000000000000600052601160045260246000fd5b60006128da82611be0565b91506128e583611be0565b92508282039050818111156128fd576128fc6128a0565b5b92915050565b600061290e82611be0565b915061291983611be0565b9250828201905080821115612931576129306128a0565b5b92915050565b600081519050919050565b600082825260208201905092915050565b600061295e82612937565b6129688185612942565b9350612978818560208601611b4a565b61298181611b74565b840191505092915050565b60006080820190506129a16000830187611c75565b6129ae6020830186611c75565b6129bb6040830185611f78565b81810360608301526129cd8184612953565b905095945050505050565b6000815190506129e781611a9f565b92915050565b600060208284031215612a0357612a02611a69565b5b6000612a11848285016129d8565b91505092915050565b7f4e487b7100000000000000000000000000000000000000000000000000000000600052603260045260246000fd5b6000612a5482611be0565b91507fffffffffffffffffffffffffffffffffffffffffffffffffffffffffffffffff8203612a8657612a856128a0565b5b600182019050919050565b7f4552433732313a206d696e7420746f20746865207a65726f2061646472657373600082015250565b6000612ac7602083611b39565b9150612ad282612a91565b602082019050919050565b60006020820190508181036000830152612af681612aba565b9050919050565b7f4552433732313a20746f6b656e20616c7265616479206d696e74656400000000600082015250565b6000612b33601c83611b39565b9150612b3e82612afd565b602082019050919050565b60006020820190508181036000830152612b6281612b26565b905091905056fea264697066735822122065e56d8f09b43d02ea6720262e95182878fe17123f30d156a46273456b3e1b6764736f6c63430008110033",
  "linkReferences": {},
  "deployedLinkReferences": {}
}