{
  "_format": "hh-sol-artifact-1",
  "contractName": "ERC721Drop",
  "sourceName": "contracts/ERC721Drop.sol",
  "abi": [
    {
      "inputs": [
        {
          "internalType": "string",
          "name": "name",
          "type": "string"
        },
        {
          "internalType": "string",
          "name": "symbol",
          "type": "string"
        },
        {
          "internalType": "bytes32",
          "name": "merkleroot",
          "type": "bytes32"
        }
      ],
      "stateMutability": "nonpayable",
      "type": "constructor"
    },
    {
      "anonymous": false,
      "inputs": [
        {
          "indexed": true,
          "internalType": "address",
          "name": "owner",
          "type": "address"
        },
        {
          "indexed": true,
          "internalType": "address",
          "name": "approved",
          "type": "address"
        },
        {
          "indexed": true,
          "internalType": "uint256",
          "name": "tokenId",
          "type": "uint256"
        }
      ],
      "name": "Approval",
      "type": "event"
    },
    {
      "anonymous": false,
      "inputs": [
        {
          "indexed": true,
          "internalType": "address",
          "name": "owner",
          "type": "address"
        },
        {
          "indexed": true,
          "internalType": "address",
          "name": "operator",
          "type": "address"
        },
        {
          "indexed": false,
          "internalType": "bool",
          "name": "approved",
          "type": "bool"
        }
      ],
      "name": "ApprovalForAll",
      "type": "event"
    },
    {
      "anonymous": false,
      "inputs": [
        {
          "indexed": true,
          "internalType": "address",
          "name": "from",
          "type": "address"
        },
        {
          "indexed": true,
          "internalType": "address",
          "name": "to",
          "type": "address"
        },
        {
          "indexed": true,
          "internalType": "uint256",
          "name": "tokenId",
          "type": "uint256"
        }
      ],
      "name": "Transfer",
      "type": "event"
    },
    {
      "inputs": [
        {
          "internalType": "address",
          "name": "to",
          "type": "address"
        },
        {
          "internalType": "uint256",
          "name": "tokenId",
          "type": "uint256"
        }
      ],
      "name": "approve",
      "outputs": [],
      "stateMutability": "nonpayable",
      "type": "function"
    },
    {
      "inputs": [
        {
          "internalType": "address",
          "name": "owner",
          "type": "address"
        }
      ],
      "name": "balanceOf",
      "outputs": [
        {
          "internalType": "uint256",
          "name": "",
          "type": "uint256"
        }
      ],
      "stateMutability": "view",
      "type": "function"
    },
    {
      "inputs": [
        {
          "internalType": "uint256",
          "name": "tokenId",
          "type": "uint256"
        }
      ],
      "name": "getApproved",
      "outputs": [
        {
          "internalType": "address",
          "name": "",
          "type": "address"
        }
      ],
      "stateMutability": "view",
      "type": "function"
    },
    {
      "inputs": [
        {
          "internalType": "address",
          "name": "owner",
          "type": "address"
        },
        {
          "internalType": "address",
          "name": "operator",
          "type": "address"
        }
      ],
      "name": "isApprovedForAll",
      "outputs": [
        {
          "internalType": "bool",
          "name": "",
          "type": "bool"
        }
      ],
      "stateMutability": "view",
      "type": "function"
    },
    {
      "inputs": [],
      "name": "name",
      "outputs": [
        {
          "internalType": "string",
          "name": "",
          "type": "string"
        }
      ],
      "stateMutability": "view",
      "type": "function"
    },
    {
      "inputs": [
        {
          "internalType": "uint256",
          "name": "tokenId",
          "type": "uint256"
        }
      ],
      "name": "ownerOf",
      "outputs": [
        {
          "internalType": "address",
          "name": "",
          "type": "address"
        }
      ],
      "stateMutability": "view",
      "type": "function"
    },
    {
      "inputs": [
        {
          "internalType": "address",
          "name": "account",
          "type": "address"
        },
        {
          "internalType": "uint256",
          "name": "tokenId",
          "type": "uint256"
        },
        {
          "internalType": "bytes32[]",
          "name": "proof",
          "type": "bytes32[]"
        }
      ],
      "name": "redeem",
      "outputs": [],
      "stateMutability": "nonpayable",
      "type": "function"
    },
    {
      "inputs": [],
      "name": "root",
      "outputs": [
        {
          "internalType": "bytes32",
          "name": "",
          "type": "bytes32"
        }
      ],
      "stateMutability": "view",
      "type": "function"
    },
    {
      "inputs": [
        {
          "internalType": "address",
          "name": "from",
          "type": "address"
        },
        {
          "internalType": "address",
          "name": "to",
          "type": "address"
        },
        {
          "internalType": "uint256",
          "name": "tokenId",
          "type": "uint256"
        }
      ],
      "name": "safeTransferFrom",
      "outputs": [],
      "stateMutability": "nonpayable",
      "type": "function"
    },
    {
      "inputs": [
        {
          "internalType": "address",
          "name": "from",
          "type": "address"
        },
        {
          "internalType": "address",
          "name": "to",
          "type": "address"
        },
        {
          "internalType": "uint256",
          "name": "tokenId",
          "type": "uint256"
        },
        {
          "internalType": "bytes",
          "name": "data",
          "type": "bytes"
        }
      ],
      "name": "safeTransferFrom",
      "outputs": [],
      "stateMutability": "nonpayable",
      "type": "function"
    },
    {
      "inputs": [
        {
          "internalType": "address",
          "name": "operator",
          "type": "address"
        },
        {
          "internalType": "bool",
          "name": "approved",
          "type": "bool"
        }
      ],
      "name": "setApprovalForAll",
      "outputs": [],
      "stateMutability": "nonpayable",
      "type": "function"
    },
    {
      "inputs": [
        {
          "internalType": "bytes4",
          "name": "interfaceId",
          "type": "bytes4"
        }
      ],
      "name": "supportsInterface",
      "outputs": [
        {
          "internalType": "bool",
          "name": "",
          "type": "bool"
        }
      ],
      "stateMutability": "view",
      "type": "function"
    },
    {
      "inputs": [],
      "name": "symbol",
      "outputs": [
        {
          "internalType": "string",
          "name": "",
          "type": "string"
        }
      ],
      "stateMutability": "view",
      "type": "function"
    },
    {
      "inputs": [
        {
          "internalType": "uint256",
          "name": "tokenId",
          "type": "uint256"
        }
      ],
      "name": "tokenURI",
      "outputs": [
        {
          "internalType": "string",
          "name": "",
          "type": "string"
        }
      ],
      "stateMutability": "view",
      "type": "function"
    },
    {
      "inputs": [
        {
          "internalType": "address",
          "name": "from",
          "type": "address"
        },
        {
          "internalType": "address",
          "name": "to",
          "type": "address"
        },
        {
          "internalType": "uint256",
          "name": "tokenId",
          "type": "uint256"
        }
      ],
      "name": "transferFrom",
      "outputs": [],
      "stateMutability": "nonpayable",
      "type": "function"
    }
  ],
  "bytecode": "0x60a06040523480156200001157600080fd5b50604051620030fa380380620030fa83398181016040528101906200003791906200023e565b828281600090816200004a919062000523565b5080600190816200005c919062000523565b50505080608081815250505050506200060a565b6000604051905090565b600080fd5b600080fd5b600080fd5b600080fd5b6000601f19601f8301169050919050565b7f4e487b7100000000000000000000000000000000000000000000000000000000600052604160045260246000fd5b620000d9826200008e565b810181811067ffffffffffffffff82111715620000fb57620000fa6200009f565b5b80604052505050565b60006200011062000070565b90506200011e8282620000ce565b919050565b600067ffffffffffffffff8211156200014157620001406200009f565b5b6200014c826200008e565b9050602081019050919050565b60005b83811015620001795780820151818401526020810190506200015c565b60008484015250505050565b60006200019c620001968462000123565b62000104565b905082815260208101848484011115620001bb57620001ba62000089565b5b620001c884828562000159565b509392505050565b600082601f830112620001e857620001e762000084565b5b8151620001fa84826020860162000185565b91505092915050565b6000819050919050565b620002188162000203565b81146200022457600080fd5b50565b60008151905062000238816200020d565b92915050565b6000806000606084860312156200025a57620002596200007a565b5b600084015167ffffffffffffffff8111156200027b576200027a6200007f565b5b6200028986828701620001d0565b935050602084015167ffffffffffffffff811115620002ad57620002ac6200007f565b5b620002bb86828701620001d0565b9250506040620002ce8682870162000227565b9150509250925092565b600081519050919050565b7f4e487b7100000000000000000000000000000000000000000000000000000000600052602260045260246000fd5b600060028204905060018216806200032b57607f821691505b602082108103620003415762000340620002e3565b5b50919050565b60008190508160005260206000209050919050565b60006020601f8301049050919050565b600082821b905092915050565b600060088302620003ab7fffffffffffffffffffffffffffffffffffffffffffffffffffffffffffffffff826200036c565b620003b786836200036c565b95508019841693508086168417925050509392505050565b6000819050919050565b6000819050919050565b600062000404620003fe620003f884620003cf565b620003d9565b620003cf565b9050919050565b6000819050919050565b6200042083620003e3565b620004386200042f826200040b565b84845462000379565b825550505050565b600090565b6200044f62000440565b6200045c81848462000415565b505050565b5b8181101562000484576200047860008262000445565b60018101905062000462565b5050565b601f821115620004d3576200049d8162000347565b620004a8846200035c565b81016020851015620004b8578190505b620004d0620004c7856200035c565b83018262000461565b50505b505050565b600082821c905092915050565b6000620004f860001984600802620004d8565b1980831691505092915050565b6000620005138383620004e5565b9150826002028217905092915050565b6200052e82620002d8565b67ffffffffffffffff8111156200054a57620005496200009f565b5b62000556825462000312565b6200056382828562000488565b600060209050601f8311600181146200059b576000841562000586578287015190505b62000592858262000505565b86555062000602565b601f198416620005ab8662000347565b60005b82811015620005d557848901518255600182019150602085019450602081019050620005ae565b86831015620005f55784890151620005f1601f891682620004e5565b8355505b6001600288020188555050505b505050505050565b608051612acd6200062d60003960008181610a540152610c240152612acd6000f3fe608060405234801561001057600080fd5b50600436106100f55760003560e01c80636352211e11610097578063b88d4fde11610066578063b88d4fde14610282578063c87b56dd1461029e578063e985e9c5146102ce578063ebf0c717146102fe576100f5565b80636352211e146101e857806370a082311461021857806395d89b4114610248578063a22cb46514610266576100f5565b8063095ea7b3116100d3578063095ea7b31461017857806314132f481461019457806323b872dd146101b057806342842e0e146101cc576100f5565b806301ffc9a7146100fa57806306fdde031461012a578063081812fc14610148575b600080fd5b610114600480360381019061010f9190611ae4565b61031c565b6040516101219190611b2c565b60405180910390f35b6101326103fe565b60405161013f9190611bd7565b60405180910390f35b610162600480360381019061015d9190611c2f565b610490565b60405161016f9190611c9d565b60405180910390f35b610192600480360381019061018d9190611ce4565b6104d6565b005b6101ae60048036038101906101a99190611d89565b6105ed565b005b6101ca60048036038101906101c59190611dfd565b61068f565b005b6101e660048036038101906101e19190611dfd565b6106ef565b005b61020260048036038101906101fd9190611c2f565b61070f565b60405161020f9190611c9d565b60405180910390f35b610232600480360381019061022d9190611e50565b610795565b60405161023f9190611e8c565b60405180910390f35b61025061084c565b60405161025d9190611bd7565b60405180910390f35b610280600480360381019061027b9190611ed3565b6108de565b005b61029c60048036038101906102979190612043565b6108f4565b005b6102b860048036038101906102b39190611c2f565b610956565b6040516102c59190611bd7565b60405180910390f35b6102e860048036038101906102e391906120c6565b6109be565b6040516102f59190611b2c565b60405180910390f35b610306610a52565b604051610313919061211f565b60405180910390f35b60007f80ac58cd000000000000000000000000000000000000000000000000000000007bffffffffffffffffffffffffffffffffffffffffffffffffffffffff1916827bffffffffffffffffffffffffffffffffffffffffffffffffffffffff191614806103e757507f5b5e139f000000000000000000000000000000000000000000000000000000007bffffffffffffffffffffffffffffffffffffffffffffffffffffffff1916827bffffffffffffffffffffffffffffffffffffffffffffffffffffffff1916145b806103f757506103f682610a76565b5b9050919050565b60606000805461040d90612169565b80601f016020809104026020016040519081016040528092919081815260200182805461043990612169565b80156104865780601f1061045b57610100808354040283529160200191610486565b820191906000526020600020905b81548152906001019060200180831161046957829003601f168201915b5050505050905090565b600061049b82610ae0565b6004600083815260200190815260200160002060009054906101000a900473ffffffffffffffffffffffffffffffffffffffff169050919050565b60006104e18261070f565b90508073ffffffffffffffffffffffffffffffffffffffff168373ffffffffffffffffffffffffffffffffffffffff1603610551576040517f08c379a00000000000000000000000000000000000000000000000000000000081526004016105489061220c565b60405180910390fd5b8073ffffffffffffffffffffffffffffffffffffffff16610570610b2b565b73ffffffffffffffffffffffffffffffffffffffff16148061059f575061059e81610599610b2b565b6109be565b5b6105de576040517f08c379a00000000000000000000000000000000000000000000000000000000081526004016105d59061229e565b60405180910390fd5b6105e88383610b33565b505050565b6106406105f985610bec565b838380806020026020016040519081016040528093929190818152602001838360200280828437600081840152601f19601f82011690508083019250505050505050610c1c565b61067f576040517f08c379a00000000000000000000000000000000000000000000000000000000081526004016106769061230a565b60405180910390fd5b6106898484610c51565b50505050565b6106a061069a610b2b565b82610c6f565b6106df576040517f08c379a00000000000000000000000000000000000000000000000000000000081526004016106d69061239c565b60405180910390fd5b6106ea838383610d04565b505050565b61070a838383604051806020016040528060008152506108f4565b505050565b60008061071b83610ffd565b9050600073ffffffffffffffffffffffffffffffffffffffff168173ffffffffffffffffffffffffffffffffffffffff160361078c576040517f08c379a000000000000000000000000000000000000000000000000000000000815260040161078390612408565b60405180910390fd5b80915050919050565b60008073ffffffffffffffffffffffffffffffffffffffff168273ffffffffffffffffffffffffffffffffffffffff1603610805576040517f08c379a00000000000000000000000000000000000000000000000000000000081526004016107fc9061249a565b60405180910390fd5b600360008373ffffffffffffffffffffffffffffffffffffffff1673ffffffffffffffffffffffffffffffffffffffff168152602001908152602001600020549050919050565b60606001805461085b90612169565b80601f016020809104026020016040519081016040528092919081815260200182805461088790612169565b80156108d45780601f106108a9576101008083540402835291602001916108d4565b820191906000526020600020905b8154815290600101906020018083116108b757829003601f168201915b5050505050905090565b6108f06108e9610b2b565b838361103a565b5050565b6109056108ff610b2b565b83610c6f565b610944576040517f08c379a000000000000000000000000000000000000000000000000000000000815260040161093b9061239c565b60405180910390fd5b610950848484846111a6565b50505050565b606061096182610ae0565b600061096b611202565b9050600081511161098b57604051806020016040528060008152506109b6565b8061099584611219565b6040516020016109a69291906124f6565b6040516020818303038152906040525b915050919050565b6000600560008473ffffffffffffffffffffffffffffffffffffffff1673ffffffffffffffffffffffffffffffffffffffff16815260200190815260200160002060008373ffffffffffffffffffffffffffffffffffffffff1673ffffffffffffffffffffffffffffffffffffffff16815260200190815260200160002060009054906101000a900460ff16905092915050565b7f000000000000000000000000000000000000000000000000000000000000000081565b60007f01ffc9a7000000000000000000000000000000000000000000000000000000007bffffffffffffffffffffffffffffffffffffffffffffffffffffffff1916827bffffffffffffffffffffffffffffffffffffffffffffffffffffffff1916149050919050565b610ae9816112e7565b610b28576040517f08c379a0000000000000000000000000000000000000000000000000000000008152600401610b1f90612408565b60405180910390fd5b50565b600033905090565b816004600083815260200190815260200160002060006101000a81548173ffffffffffffffffffffffffffffffffffffffff021916908373ffffffffffffffffffffffffffffffffffffffff160217905550808273ffffffffffffffffffffffffffffffffffffffff16610ba68361070f565b73ffffffffffffffffffffffffffffffffffffffff167f8c5be1e5ebec7d5bd14f71427d1e84f3dd0314c0f7b2291e5b200ac8c7c3b92560405160405180910390a45050565b600081604051602001610bff9190612562565b604051602081830303815290604052805190602001209050919050565b6000610c49827f000000000000000000000000000000000000000000000000000000000000000085611328565b905092915050565b610c6b82826040518060200160405280600081525061133f565b5050565b600080610c7b8361070f565b90508073ffffffffffffffffffffffffffffffffffffffff168473ffffffffffffffffffffffffffffffffffffffff161480610cbd5750610cbc81856109be565b5b80610cfb57508373ffffffffffffffffffffffffffffffffffffffff16610ce384610490565b73ffffffffffffffffffffffffffffffffffffffff16145b91505092915050565b8273ffffffffffffffffffffffffffffffffffffffff16610d248261070f565b73ffffffffffffffffffffffffffffffffffffffff1614610d7a576040517f08c379a0000000000000000000000000000000000000000000000000000000008152600401610d71906125ef565b60405180910390fd5b600073ffffffffffffffffffffffffffffffffffffffff168273ffffffffffffffffffffffffffffffffffffffff1603610de9576040517f08c379a0000000000000000000000000000000000000000000000000000000008152600401610de090612681565b60405180910390fd5b610df6838383600161139a565b8273ffffffffffffffffffffffffffffffffffffffff16610e168261070f565b73ffffffffffffffffffffffffffffffffffffffff1614610e6c576040517f08c379a0000000000000000000000000000000000000000000000000000000008152600401610e63906125ef565b60405180910390fd5b6004600082815260200190815260200160002060006101000a81549073ffffffffffffffffffffffffffffffffffffffff02191690556001600360008573ffffffffffffffffffffffffffffffffffffffff1673ffffffffffffffffffffffffffffffffffffffff168152602001908152602001600020600082825403925050819055506001600360008473ffffffffffffffffffffffffffffffffffffffff1673ffffffffffffffffffffffffffffffffffffffff16815260200190815260200160002060008282540192505081905550816002600083815260200190815260200160002060006101000a81548173ffffffffffffffffffffffffffffffffffffffff021916908373ffffffffffffffffffffffffffffffffffffffff160217905550808273ffffffffffffffffffffffffffffffffffffffff168473ffffffffffffffffffffffffffffffffffffffff167fddf252ad1be2c89b69c2b068fc378daa952ba7f163c4a11628f55a4df523b3ef60405160405180910390a4610ff883838360016114c0565b505050565b60006002600083815260200190815260200160002060009054906101000a900473ffffffffffffffffffffffffffffffffffffffff169050919050565b8173ffffffffffffffffffffffffffffffffffffffff168373ffffffffffffffffffffffffffffffffffffffff16036110a8576040517f08c379a000000000000000000000000000000000000000000000000000000000815260040161109f906126ed565b60405180910390fd5b80600560008573ffffffffffffffffffffffffffffffffffffffff1673ffffffffffffffffffffffffffffffffffffffff16815260200190815260200160002060008473ffffffffffffffffffffffffffffffffffffffff1673ffffffffffffffffffffffffffffffffffffffff16815260200190815260200160002060006101000a81548160ff0219169083151502179055508173ffffffffffffffffffffffffffffffffffffffff168373ffffffffffffffffffffffffffffffffffffffff167f17307eab39ab6107e8899845ad3d59bd9653f200f220920489ca2b5937696c31836040516111999190611b2c565b60405180910390a3505050565b6111b1848484610d04565b6111bd848484846114c6565b6111fc576040517f08c379a00000000000000000000000000000000000000000000000000000000081526004016111f39061277f565b60405180910390fd5b50505050565b606060405180602001604052806000815250905090565b6060600060016112288461164d565b01905060008167ffffffffffffffff81111561124757611246611f18565b5b6040519080825280601f01601f1916602001820160405280156112795781602001600182028036833780820191505090505b509050600082602001820190505b6001156112dc578080600190039150507f3031323334353637383961626364656600000000000000000000000000000000600a86061a8153600a85816112d0576112cf61279f565b5b04945060008503611287575b819350505050919050565b60008073ffffffffffffffffffffffffffffffffffffffff1661130983610ffd565b73ffffffffffffffffffffffffffffffffffffffff1614159050919050565b60008261133585846117a0565b1490509392505050565b61134983836117f6565b61135660008484846114c6565b611395576040517f08c379a000000000000000000000000000000000000000000000000000000000815260040161138c9061277f565b60405180910390fd5b505050565b60018111156114ba57600073ffffffffffffffffffffffffffffffffffffffff168473ffffffffffffffffffffffffffffffffffffffff161461142e5780600360008673ffffffffffffffffffffffffffffffffffffffff1673ffffffffffffffffffffffffffffffffffffffff168152602001908152602001600020600082825461142691906127fd565b925050819055505b600073ffffffffffffffffffffffffffffffffffffffff168373ffffffffffffffffffffffffffffffffffffffff16146114b95780600360008573ffffffffffffffffffffffffffffffffffffffff1673ffffffffffffffffffffffffffffffffffffffff16815260200190815260200160002060008282546114b19190612831565b925050819055505b5b50505050565b50505050565b60006114e78473ffffffffffffffffffffffffffffffffffffffff16611a13565b15611640578373ffffffffffffffffffffffffffffffffffffffff1663150b7a02611510610b2b565b8786866040518563ffffffff1660e01b815260040161153294939291906128ba565b6020604051808303816000875af192505050801561156e57506040513d601f19601f8201168201806040525081019061156b919061291b565b60015b6115f0573d806000811461159e576040519150601f19603f3d011682016040523d82523d6000602084013e6115a3565b606091505b5060008151036115e8576040517f08c379a00000000000000000000000000000000000000000000000000000000081526004016115df9061277f565b60405180910390fd5b805181602001fd5b63150b7a0260e01b7bffffffffffffffffffffffffffffffffffffffffffffffffffffffff1916817bffffffffffffffffffffffffffffffffffffffffffffffffffffffff191614915050611645565b600190505b949350505050565b600080600090507a184f03e93ff9f4daa797ed6e38ed64bf6a1f01000000000000000083106116ab577a184f03e93ff9f4daa797ed6e38ed64bf6a1f01000000000000000083816116a1576116a061279f565b5b0492506040810190505b6d04ee2d6d415b85acef810000000083106116e8576d04ee2d6d415b85acef810000000083816116de576116dd61279f565b5b0492506020810190505b662386f26fc10000831061171757662386f26fc10000838161170d5761170c61279f565b5b0492506010810190505b6305f5e1008310611740576305f5e10083816117365761173561279f565b5b0492506008810190505b612710831061176557612710838161175b5761175a61279f565b5b0492506004810190505b60648310611788576064838161177e5761177d61279f565b5b0492506002810190505b600a8310611797576001810190505b80915050919050565b60008082905060005b84518110156117eb576117d6828683815181106117c9576117c8612948565b5b6020026020010151611a36565b915080806117e390612977565b9150506117a9565b508091505092915050565b600073ffffffffffffffffffffffffffffffffffffffff168273ffffffffffffffffffffffffffffffffffffffff1603611865576040517f08c379a000000000000000000000000000000000000000000000000000000000815260040161185c90612a0b565b60405180910390fd5b61186e816112e7565b156118ae576040517f08c379a00000000000000000000000000000000000000000000000000000000081526004016118a590612a77565b60405180910390fd5b6118bc60008383600161139a565b6118c5816112e7565b15611905576040517f08c379a00000000000000000000000000000000000000000000000000000000081526004016118fc90612a77565b60405180910390fd5b6001600360008473ffffffffffffffffffffffffffffffffffffffff1673ffffffffffffffffffffffffffffffffffffffff16815260200190815260200160002060008282540192505081905550816002600083815260200190815260200160002060006101000a81548173ffffffffffffffffffffffffffffffffffffffff021916908373ffffffffffffffffffffffffffffffffffffffff160217905550808273ffffffffffffffffffffffffffffffffffffffff16600073ffffffffffffffffffffffffffffffffffffffff167fddf252ad1be2c89b69c2b068fc378daa952ba7f163c4a11628f55a4df523b3ef60405160405180910390a4611a0f6000838360016114c0565b5050565b6000808273ffffffffffffffffffffffffffffffffffffffff163b119050919050565b6000818310611a4e57611a498284611a61565b611a59565b611a588383611a61565b5b905092915050565b600082600052816020526040600020905092915050565b6000604051905090565b600080fd5b600080fd5b60007fffffffff0000000000000000000000000000000000000000000000000000000082169050919050565b611ac181611a8c565b8114611acc57600080fd5b50565b600081359050611ade81611ab8565b92915050565b600060208284031215611afa57611af9611a82565b5b6000611b0884828501611acf565b91505092915050565b60008115159050919050565b611b2681611b11565b82525050565b6000602082019050611b416000830184611b1d565b92915050565b600081519050919050565b600082825260208201905092915050565b60005b83811015611b81578082015181840152602081019050611b66565b60008484015250505050565b6000601f19601f8301169050919050565b6000611ba982611b47565b611bb38185611b52565b9350611bc3818560208601611b63565b611bcc81611b8d565b840191505092915050565b60006020820190508181036000830152611bf18184611b9e565b905092915050565b6000819050919050565b611c0c81611bf9565b8114611c1757600080fd5b50565b600081359050611c2981611c03565b92915050565b600060208284031215611c4557611c44611a82565b5b6000611c5384828501611c1a565b91505092915050565b600073ffffffffffffffffffffffffffffffffffffffff82169050919050565b6000611c8782611c5c565b9050919050565b611c9781611c7c565b82525050565b6000602082019050611cb26000830184611c8e565b92915050565b611cc181611c7c565b8114611ccc57600080fd5b50565b600081359050611cde81611cb8565b92915050565b60008060408385031215611cfb57611cfa611a82565b5b6000611d0985828601611ccf565b9250506020611d1a85828601611c1a565b9150509250929050565b600080fd5b600080fd5b600080fd5b60008083601f840112611d4957611d48611d24565b5b8235905067ffffffffffffffff811115611d6657611d65611d29565b5b602083019150836020820283011115611d8257611d81611d2e565b5b9250929050565b60008060008060608587031215611da357611da2611a82565b5b6000611db187828801611ccf565b9450506020611dc287828801611c1a565b935050604085013567ffffffffffffffff811115611de357611de2611a87565b5b611def87828801611d33565b925092505092959194509250565b600080600060608486031215611e1657611e15611a82565b5b6000611e2486828701611ccf565b9350506020611e3586828701611ccf565b9250506040611e4686828701611c1a565b9150509250925092565b600060208284031215611e6657611e65611a82565b5b6000611e7484828501611ccf565b91505092915050565b611e8681611bf9565b82525050565b6000602082019050611ea16000830184611e7d565b92915050565b611eb081611b11565b8114611ebb57600080fd5b50565b600081359050611ecd81611ea7565b92915050565b60008060408385031215611eea57611ee9611a82565b5b6000611ef885828601611ccf565b9250506020611f0985828601611ebe565b9150509250929050565b600080fd5b7f4e487b7100000000000000000000000000000000000000000000000000000000600052604160045260246000fd5b611f5082611b8d565b810181811067ffffffffffffffff82111715611f6f57611f6e611f18565b5b80604052505050565b6000611f82611a78565b9050611f8e8282611f47565b919050565b600067ffffffffffffffff821115611fae57611fad611f18565b5b611fb782611b8d565b9050602081019050919050565b82818337600083830152505050565b6000611fe6611fe184611f93565b611f78565b90508281526020810184848401111561200257612001611f13565b5b61200d848285611fc4565b509392505050565b600082601f83011261202a57612029611d24565b5b813561203a848260208601611fd3565b91505092915050565b6000806000806080858703121561205d5761205c611a82565b5b600061206b87828801611ccf565b945050602061207c87828801611ccf565b935050604061208d87828801611c1a565b925050606085013567ffffffffffffffff8111156120ae576120ad611a87565b5b6120ba87828801612015565b91505092959194509250565b600080604083850312156120dd576120dc611a82565b5b60006120eb85828601611ccf565b92505060206120fc85828601611ccf565b9150509250929050565b6000819050919050565b61211981612106565b82525050565b60006020820190506121346000830184612110565b92915050565b7f4e487b7100000000000000000000000000000000000000000000000000000000600052602260045260246000fd5b6000600282049050600182168061218157607f821691505b6020821081036121945761219361213a565b5b50919050565b7f4552433732313a20617070726f76616c20746f2063757272656e74206f776e6560008201527f7200000000000000000000000000000000000000000000000000000000000000602082015250565b60006121f6602183611b52565b91506122018261219a565b604082019050919050565b60006020820190508181036000830152612225816121e9565b9050919050565b7f4552433732313a20617070726f76652063616c6c6572206973206e6f7420746f60008201527f6b656e206f776e6572206f7220617070726f76656420666f7220616c6c000000602082015250565b6000612288603d83611b52565b91506122938261222c565b604082019050919050565b600060208201905081810360008301526122b78161227b565b9050919050565b7f496e76616c696400000000000000000000000000000000000000000000000000600082015250565b60006122f4600783611b52565b91506122ff826122be565b602082019050919050565b60006020820190508181036000830152612323816122e7565b9050919050565b7f4552433732313a2063616c6c6572206973206e6f7420746f6b656e206f776e6560008201527f72206f7220617070726f76656400000000000000000000000000000000000000602082015250565b6000612386602d83611b52565b91506123918261232a565b604082019050919050565b600060208201905081810360008301526123b581612379565b9050919050565b7f4552433732313a20696e76616c696420746f6b656e2049440000000000000000600082015250565b60006123f2601883611b52565b91506123fd826123bc565b602082019050919050565b60006020820190508181036000830152612421816123e5565b9050919050565b7f4552433732313a2061646472657373207a65726f206973206e6f74206120766160008201527f6c6964206f776e65720000000000000000000000000000000000000000000000602082015250565b6000612484602983611b52565b915061248f82612428565b604082019050919050565b600060208201905081810360008301526124b381612477565b9050919050565b600081905092915050565b60006124d082611b47565b6124da81856124ba565b93506124ea818560208601611b63565b80840191505092915050565b600061250282856124c5565b915061250e82846124c5565b91508190509392505050565b60008160601b9050919050565b60006125328261251a565b9050919050565b600061254482612527565b9050919050565b61255c61255782611c7c565b612539565b82525050565b600061256e828461254b565b60148201915081905092915050565b7f4552433732313a207472616e736665722066726f6d20696e636f72726563742060008201527f6f776e6572000000000000000000000000000000000000000000000000000000602082015250565b60006125d9602583611b52565b91506125e48261257d565b604082019050919050565b60006020820190508181036000830152612608816125cc565b9050919050565b7f4552433732313a207472616e7366657220746f20746865207a65726f2061646460008201527f7265737300000000000000000000000000000000000000000000000000000000602082015250565b600061266b602483611b52565b91506126768261260f565b604082019050919050565b6000602082019050818103600083015261269a8161265e565b9050919050565b7f4552433732313a20617070726f766520746f2063616c6c657200000000000000600082015250565b60006126d7601983611b52565b91506126e2826126a1565b602082019050919050565b60006020820190508181036000830152612706816126ca565b9050919050565b7f4552433732313a207472616e7366657220746f206e6f6e20455243373231526560008201527f63656976657220696d706c656d656e7465720000000000000000000000000000602082015250565b6000612769603283611b52565b91506127748261270d565b604082019050919050565b600060208201905081810360008301526127988161275c565b9050919050565b7f4e487b7100000000000000000000000000000000000000000000000000000000600052601260045260246000fd5b7f4e487b7100000000000000000000000000000000000000000000000000000000600052601160045260246000fd5b600061280882611bf9565b915061281383611bf9565b925082820390508181111561282b5761282a6127ce565b5b92915050565b600061283c82611bf9565b915061284783611bf9565b925082820190508082111561285f5761285e6127ce565b5b92915050565b600081519050919050565b600082825260208201905092915050565b600061288c82612865565b6128968185612870565b93506128a6818560208601611b63565b6128af81611b8d565b840191505092915050565b60006080820190506128cf6000830187611c8e565b6128dc6020830186611c8e565b6128e96040830185611e7d565b81810360608301526128fb8184612881565b905095945050505050565b60008151905061291581611ab8565b92915050565b60006020828403121561293157612930611a82565b5b600061293f84828501612906565b91505092915050565b7f4e487b7100000000000000000000000000000000000000000000000000000000600052603260045260246000fd5b600061298282611bf9565b91507fffffffffffffffffffffffffffffffffffffffffffffffffffffffffffffffff82036129b4576129b36127ce565b5b600182019050919050565b7f4552433732313a206d696e7420746f20746865207a65726f2061646472657373600082015250565b60006129f5602083611b52565b9150612a00826129bf565b602082019050919050565b60006020820190508181036000830152612a24816129e8565b9050919050565b7f4552433732313a20746f6b656e20616c7265616479206d696e74656400000000600082015250565b6000612a61601c83611b52565b9150612a6c82612a2b565b602082019050919050565b60006020820190508181036000830152612a9081612a54565b905091905056fea2646970667358221220b53a96ca70003ae35600b0090fb4bffec83f7c3a052351201abd1b00cf44b5cc64736f6c63430008110033",
  "linkReferences": {},
  "deployedLinkReferences": {}
}